:100000000C9434000C9449000C9449000C94490061
:100010000C9449000C9449000C9449000C9449003C
:100020000C9449000C9449000C9449000C9449002C
:100030000C9449000C9449000C9449000C9449001C
:100040000C9449000C9449000C9449000C9449000C
:100050000C9449000C9449000C9449000C944900FC
:100060000C9449000C94490011241FBECFEFD8E036
:10007000DEBFCDBF13E0A0E0B1E0E4E0F6E002C0F7
:1000800005900D92AA31B107D9F70E943D020C9458
:1000900000030C9400000F931F93CF93DF938C0108
:1000A000EB01BA0140E050E09801240F351FFB013D
:1000B000E40FF51FDE01A40FB51F80819C918927F5
:1000C000F90180834F5F5F4F4430510569F7DF913D
:1000D000CF911F910F910895DC0190E0EC91F0E039
:1000E000E65FFE4F80818D939F5F9430B9F708954E
:1000F000FC019081818180838281818383818283DD
:1001000093830895CF92DF92EF92FF920F931F9304
:10011000CF93DF93EC018C01005F1F4F80E0E82E4E
:1001200081E0F82EDC2ECD2E8C85D8018C938D8528
:10013000898B8E858A8B8F858B8BC8010E94780076
:10014000A801D80198012C5F3F4FEC91F0E0E65FE9
:10015000FE4F80818D93A217B307B9F7F801808114
:10016000D7019C91892780832D2D3C2DC901FC014D
:100170009C012C5F3F4FDA018C91919189278D93DF
:10018000AD01E217F307B9F7F80180819C81892757
:100190008C8B81819D8189278D8B82819E8189278E
:1001A0008E8B83819F8189278F8BDE0120E0848164
:1001B00018969C911897892780872F5F1196319602
:1001C0002430A9F7DE01F80120E080851C969C917F
:1001D0001C97892784872F5F119631962430A9F7C1
:1001E0006096005F1F4F0894E11CF11CFAE0EF16C7
:1001F000F1E0FF0609F096CFDF91CF911F910F91AB
:10020000FF90EF90DF90CF90089590E02BE109C030
:1002100060FD982787FF03C0880F822701C0880FE1
:1002200066956623A9F7892F08955A9A0000000061
:10023000000000005A980895DC0190E0EC91F0E095
:10024000E65FFE4F80818D939F5F9031B9F70895EF
:10025000FC01918185818183818585838585818765
:10026000958792818285828392879681868586830F
:10027000968797858385878787818387838187830F
:1002800093830895BF92CF92DF92EF92FF920F93E4
:100290001F93CF93DF93B62EEC01CC2488E0B816E1
:1002A00011F40E941501F880D9801A81EB8082E058
:1002B0006F2D0E940501082F83E06D2D0E9405011E
:1002C0009E2D912790279827988382E06D2D0E947C
:1002D0000501082F83E0612F0E9405019E2D9F25B7
:1002E00090279827998382E0612F0E940501082FAB
:1002F00083E06E2D0E9405019D2D9F259027982754
:100300009A8383E06F2D0E940501082F82E06E2DF5
:100310000E9405011D25102718271B83C3942496CE
:1003200084E0C81609F0BACFDF91CF911F910F91E9
:10033000FF90EF90DF90CF90BF900895DC0120E018
:1003400030E0FB01E20FF31F8C91908189278D93A0
:100350002F5F3F4F20313105A1F70895AC0120E018
:1003600030E0FA01E20FF31FDB01A20FB31F8C9103
:1003700080832F5F3F4F2031310599F7CA010E94DA
:10038000820008959F92AF92BF92CF92DF92EF9238
:10039000FF920F931F93CF93DF93C82E992E8B015B
:1003A000E82ED92E5C01DB01FC019B01205F3F4F51
:1003B00080819D9189278193A217B307C9F7E8012E
:1003C0006096FF2428C0EC91F0E0E65FFE4F80814C
:1003D0008D939F5F9031B9F78C2D992D0E94280144
:1003E000F3948C2D992D6F2D0E9442018E2D9D2D01
:1003F000DC0120E030E0FE01E20FF31F8C919081E0
:1004000089278D932F5F3F4F20313105A1F76096EB
:1004100089E0F81629F08E2D9D2DDC0190E0D3CFD8
:100420008E2D9D2DDC0190E0EC91F0E0E65FFE4F1B
:1004300080818D939F5F9031B9F78C2D992D0E940B
:100440002801F801E056FF4F20E0D5018C919191F1
:1004500089278D935D012F5F2031B9F78C2D992D60
:10046000DF91CF911F910F91FF90EF90DF90CF9090
:10047000BF90AF909F9008950895EF92FF920F93D1
:100480001F93DF93CF93CDB7DEB7C05CD0400FB6DC
:10049000F894DEBF0FBECDBF8E010F5E1F4FC801A7
:1004A0006AE073E00E94AE0188E097E00E9480025B
:1004B000529A7E010894E11CF11C80E1F70111922F
:1004C0008A95E9F7C701B8010E94C201C70160E13E
:1004D0000E949D028DE00E9495028AE00E94950292
:1004E00080E090E0C054DF4F0FB6F894DEBF0FBE3F
:1004F000CDBFCF91DF911F910F91FF90EF900895A5
:100500009C0140E050E064E274EF80E090E00E94E3
:10051000C302215030402093C4003093C500E1EC69
:10052000F0E08081886180830895982F8091C000D9
:1005300085FFFCCF9093C6000895FC0130E020C0F9
:100540008081482F42954F70582F5F704A3010F4C9
:1005500020E301C027E35A3010F490E301C097E391
:100560008091C00085FFFCCF240F2093C6008091AE
:10057000C00085FFFCCF950F9093C6003F5F31967A
:100580003617F0F2089597FB092E05260ED057FD79
:1005900004D014D00AD0001C38F450954095309502
:1005A00021953F4F4F4F5F4F0895F6F790958095F7
:1005B000709561957F4F8F4F9F4F0895A1E21A2E3E
:1005C000AA1BBB1BFD010DC0AA1FBB1FEE1FFF1FF7
:1005D000A217B307E407F50720F0A21BB30BE40B47
:1005E000F50B661F771F881F991F1A9469F760958E
:1005F0007095809590959B01AC01BD01CF01089548
:04060000F894FFCF9C
:1006040001020408102040801B36637C777BF26B68
:100614006FC53001672BFED7AB76CA82C97DFA5904
:1006240047F0ADD4A2AF9CA472C0B7FD9326363F69
:10063400F7CC34A5E5F171D8311504C723C3189656
:10064400059A071280E2EB27B27509832C1A1B6EF8
:100654005AA0523BD6B329E32F8453D100ED20FC9A
:10066400B15B6ACBBE394A4C58CFD0EFAAFB434D9D
:10067400338545F9027F503C9FA851A3408F929D3A
:1006840038F5BCB6DA2110FFF3D2CD0C13EC5F972A
:100694004417C4A77E3D645D197360814FDC222A30
:1006A400908846EEB814DE5E0BDBE0323A0A490667
:1006B400245CC2D3AC629195E479E7C8376D8DD5DB
:1006C4004EA96C56F4EA657AAE08BA78252E1CA6B3
:1006D400B4C6E8DD741F4BBD8B8A703EB566480313
:1006E400F60E613557B986C11D9EE1F8981169D996
:1006F4008E949B1E87E9CE5528DF8CA1890DBFE619
:10070400426841992D0FB054BB1652096AD5303650
:10071400A538BF40A39E81F3D7FB7CE339829B2F8E
:10072400FF87348E4344C4DEE9CB547B9432A6C2A3
:10073400233DEE4C950B42FAC34E082EA16628D9F0
:1007440024B2765BA2496D8BD12572F8F664866873
:100754009816D4A45CCC5D65B6926C704850FDEDDF
:10076400B9DA5E154657A78D9D8490D8AB008CBC32
:10077400D30AF7E45805B8B34506D02C1E8FCA3FF8
:100784000F02C1AFBD0301138A6B3A9111414F6748
:10079400DCEA97F2CFCEF0B4E67396AC7422E7AD00
:1007A4003585E2F937E81C75DF6E47F11A711D29AA
:1007B400C5896FB7620EAA18BE1BFC563E4BC6D243
:1007C40079209ADBC0FE78CD5AF41FDDA833880760
:1007D400C731B11210592780EC5F60517FA919B558
:1007E4004A0D2DE57A9F93C99CEFA0E03B4DAE2ABC
:1007F400F5B0C8EBBB3C83539961172B047EBA77E1
:10080400D626E169146355210C7D00112233445529
:0A08140066778899AABBCCDDEEFFE1
:00000001FF
